{
  "_format": "hh-sol-artifact-1",
  "contractName": "CowNFT",
  "sourceName": "contracts/CowNFT.sol",
  "abi": [
    {
      "inputs": [
        {
          "internalType": "address",
          "name": "_beraborrow",
          "type": "address"
        }
      ],
      "stateMutability": "nonpayable",
      "type": "constructor"
    },
    {
      "inputs": [
        {
          "internalType": "address",
          "name": "sender",
          "type": "address"
        },
        {
          "internalType": "uint256",
          "name": "tokenId",
          "type": "uint256"
        },
        {
          "internalType": "address",
          "name": "owner",
          "type": "address"
        }
      ],
      "name": "ERC721IncorrectOwner",
      "type": "error"
    },
    {
      "inputs": [
        {
          "internalType": "address",
          "name": "operator",
          "type": "address"
        },
        {
          "internalType": "uint256",
          "name": "tokenId",
          "type": "uint256"
        }
      ],
      "name": "ERC721InsufficientApproval",
      "type": "error"
    },
    {
      "inputs": [
        {
          "internalType": "address",
          "name": "approver",
          "type": "address"
        }
      ],
      "name": "ERC721InvalidApprover",
      "type": "error"
    },
    {
      "inputs": [
        {
          "internalType": "address",
          "name": "operator",
          "type": "address"
        }
      ],
      "name": "ERC721InvalidOperator",
      "type": "error"
    },
    {
      "inputs": [
        {
          "internalType": "address",
          "name": "owner",
          "type": "address"
        }
      ],
      "name": "ERC721InvalidOwner",
      "type": "error"
    },
    {
      "inputs": [
        {
          "internalType": "address",
          "name": "receiver",
          "type": "address"
        }
      ],
      "name": "ERC721InvalidReceiver",
      "type": "error"
    },
    {
      "inputs": [
        {
          "internalType": "address",
          "name": "sender",
          "type": "address"
        }
      ],
      "name": "ERC721InvalidSender",
      "type": "error"
    },
    {
      "inputs": [
        {
          "internalType": "uint256",
          "name": "tokenId",
          "type": "uint256"
        }
      ],
      "name": "ERC721NonexistentToken",
      "type": "error"
    },
    {
      "inputs": [
        {
          "internalType": "address",
          "name": "owner",
          "type": "address"
        }
      ],
      "name": "OwnableInvalidOwner",
      "type": "error"
    },
    {
      "inputs": [
        {
          "internalType": "address",
          "name": "account",
          "type": "address"
        }
      ],
      "name": "OwnableUnauthorizedAccount",
      "type": "error"
    },
    {
      "anonymous": false,
      "inputs": [
        {
          "indexed": true,
          "internalType": "address",
          "name": "owner",
          "type": "address"
        },
        {
          "indexed": true,
          "internalType": "address",
          "name": "approved",
          "type": "address"
        },
        {
          "indexed": true,
          "internalType": "uint256",
          "name": "tokenId",
          "type": "uint256"
        }
      ],
      "name": "Approval",
      "type": "event"
    },
    {
      "anonymous": false,
      "inputs": [
        {
          "indexed": true,
          "internalType": "address",
          "name": "owner",
          "type": "address"
        },
        {
          "indexed": true,
          "internalType": "address",
          "name": "operator",
          "type": "address"
        },
        {
          "indexed": false,
          "internalType": "bool",
          "name": "approved",
          "type": "bool"
        }
      ],
      "name": "ApprovalForAll",
      "type": "event"
    },
    {
      "anonymous": false,
      "inputs": [
        {
          "indexed": true,
          "internalType": "address",
          "name": "previousOwner",
          "type": "address"
        },
        {
          "indexed": true,
          "internalType": "address",
          "name": "newOwner",
          "type": "address"
        }
      ],
      "name": "OwnershipTransferred",
      "type": "event"
    },
    {
      "anonymous": false,
      "inputs": [
        {
          "indexed": true,
          "internalType": "address",
          "name": "from",
          "type": "address"
        },
        {
          "indexed": true,
          "internalType": "address",
          "name": "to",
          "type": "address"
        },
        {
          "indexed": true,
          "internalType": "uint256",
          "name": "tokenId",
          "type": "uint256"
        }
      ],
      "name": "Transfer",
      "type": "event"
    },
    {
      "inputs": [
        {
          "internalType": "address",
          "name": "to",
          "type": "address"
        },
        {
          "internalType": "uint256",
          "name": "tokenId",
          "type": "uint256"
        }
      ],
      "name": "approve",
      "outputs": [],
      "stateMutability": "nonpayable",
      "type": "function"
    },
    {
      "inputs": [
        {
          "internalType": "address",
          "name": "owner",
          "type": "address"
        }
      ],
      "name": "balanceOf",
      "outputs": [
        {
          "internalType": "uint256",
          "name": "",
          "type": "uint256"
        }
      ],
      "stateMutability": "view",
      "type": "function"
    },
    {
      "inputs": [],
      "name": "beraborrow",
      "outputs": [
        {
          "internalType": "contract IBeraborrow",
          "name": "",
          "type": "address"
        }
      ],
      "stateMutability": "view",
      "type": "function"
    },
    {
      "inputs": [
        {
          "internalType": "uint256",
          "name": "",
          "type": "uint256"
        }
      ],
      "name": "cowToVault",
      "outputs": [
        {
          "internalType": "uint256",
          "name": "",
          "type": "uint256"
        }
      ],
      "stateMutability": "view",
      "type": "function"
    },
    {
      "inputs": [
        {
          "internalType": "uint256",
          "name": "tokenId",
          "type": "uint256"
        }
      ],
      "name": "getApproved",
      "outputs": [
        {
          "internalType": "address",
          "name": "",
          "type": "address"
        }
      ],
      "stateMutability": "view",
      "type": "function"
    },
    {
      "inputs": [
        {
          "internalType": "address",
          "name": "owner",
          "type": "address"
        },
        {
          "internalType": "address",
          "name": "operator",
          "type": "address"
        }
      ],
      "name": "isApprovedForAll",
      "outputs": [
        {
          "internalType": "bool",
          "name": "",
          "type": "bool"
        }
      ],
      "stateMutability": "view",
      "type": "function"
    },
    {
      "inputs": [
        {
          "internalType": "address",
          "name": "to",
          "type": "address"
        }
      ],
      "name": "mintCow",
      "outputs": [],
      "stateMutability": "nonpayable",
      "type": "function"
    },
    {
      "inputs": [],
      "name": "name",
      "outputs": [
        {
          "internalType": "string",
          "name": "",
          "type": "string"
        }
      ],
      "stateMutability": "view",
      "type": "function"
    },
    {
      "inputs": [],
      "name": "nextTokenId",
      "outputs": [
        {
          "internalType": "uint256",
          "name": "",
          "type": "uint256"
        }
      ],
      "stateMutability": "view",
      "type": "function"
    },
    {
      "inputs": [],
      "name": "owner",
      "outputs": [
        {
          "internalType": "address",
          "name": "",
          "type": "address"
        }
      ],
      "stateMutability": "view",
      "type": "function"
    },
    {
      "inputs": [
        {
          "internalType": "uint256",
          "name": "tokenId",
          "type": "uint256"
        }
      ],
      "name": "ownerOf",
      "outputs": [
        {
          "internalType": "address",
          "name": "",
          "type": "address"
        }
      ],
      "stateMutability": "view",
      "type": "function"
    },
    {
      "inputs": [],
      "name": "renounceOwnership",
      "outputs": [],
      "stateMutability": "nonpayable",
      "type": "function"
    },
    {
      "inputs": [
        {
          "internalType": "address",
          "name": "from",
          "type": "address"
        },
        {
          "internalType": "address",
          "name": "to",
          "type": "address"
        },
        {
          "internalType": "uint256",
          "name": "tokenId",
          "type": "uint256"
        }
      ],
      "name": "safeTransferFrom",
      "outputs": [],
      "stateMutability": "nonpayable",
      "type": "function"
    },
    {
      "inputs": [
        {
          "internalType": "address",
          "name": "from",
          "type": "address"
        },
        {
          "internalType": "address",
          "name": "to",
          "type": "address"
        },
        {
          "internalType": "uint256",
          "name": "tokenId",
          "type": "uint256"
        },
        {
          "internalType": "bytes",
          "name": "data",
          "type": "bytes"
        }
      ],
      "name": "safeTransferFrom",
      "outputs": [],
      "stateMutability": "nonpayable",
      "type": "function"
    },
    {
      "inputs": [
        {
          "internalType": "address",
          "name": "operator",
          "type": "address"
        },
        {
          "internalType": "bool",
          "name": "approved",
          "type": "bool"
        }
      ],
      "name": "setApprovalForAll",
      "outputs": [],
      "stateMutability": "nonpayable",
      "type": "function"
    },
    {
      "inputs": [
        {
          "internalType": "bytes4",
          "name": "interfaceId",
          "type": "bytes4"
        }
      ],
      "name": "supportsInterface",
      "outputs": [
        {
          "internalType": "bool",
          "name": "",
          "type": "bool"
        }
      ],
      "stateMutability": "view",
      "type": "function"
    },
    {
      "inputs": [],
      "name": "symbol",
      "outputs": [
        {
          "internalType": "string",
          "name": "",
          "type": "string"
        }
      ],
      "stateMutability": "view",
      "type": "function"
    },
    {
      "inputs": [
        {
          "internalType": "uint256",
          "name": "tokenId",
          "type": "uint256"
        }
      ],
      "name": "tokenURI",
      "outputs": [
        {
          "internalType": "string",
          "name": "",
          "type": "string"
        }
      ],
      "stateMutability": "view",
      "type": "function"
    },
    {
      "inputs": [
        {
          "internalType": "address",
          "name": "from",
          "type": "address"
        },
        {
          "internalType": "address",
          "name": "to",
          "type": "address"
        },
        {
          "internalType": "uint256",
          "name": "tokenId",
          "type": "uint256"
        }
      ],
      "name": "transferFrom",
      "outputs": [],
      "stateMutability": "nonpayable",
      "type": "function"
    },
    {
      "inputs": [
        {
          "internalType": "address",
          "name": "newOwner",
          "type": "address"
        }
      ],
      "name": "transferOwnership",
      "outputs": [],
      "stateMutability": "nonpayable",
      "type": "function"
    }
  ],
  "bytecode": "0x608034620003be57601f906001600160401b0390601f1990620012b0388190038581018416830185811184821017620003a857839282916040528339602092839181010312620003be57516001600160a01b03948582169491859003620003be576200006a620003c3565b92600a8452694d6f6f67696320436f7760b01b818501526200008b620003c3565b906003825262434f5760e81b81830152845195848711620003a8576000968754966001978881811c911680156200039d575b85821014620003895790818784931162000336575b508490878311600114620002d5578a92620002c9575b5050600019600383901b1c191690871b1787555b8251948511620002b55785548681811c91168015620002aa575b8382101462000296579081858796959493116200023d575b5081938511600114620001d85750508592620001cc575b5050600019600383901b1c191690821b1790555b3315620001b45760065460018060a01b03199133838316176006557f8be0079c531659141344cd1fd0a4f28419497f9722a3daafe3b4186f6b6457e0604051953393169180a36009541617600955610ecc9081620003e48239f35b60249060405190631e4fbdf760e01b82526004820152fd5b01519050388062000145565b869593929193168588528388209388905b82821062000223575050841162000209575b505050811b01905562000159565b015160001960f88460031b161c19169055388080620001fb565b8484015186558897909501949384019390810190620001e9565b9091929394508688528288208580880160051c8201928589106200028c575b9188978a9297969594930160051c01915b8281106200027d5750506200012e565b8a81558897508991016200026d565b925081926200025c565b634e487b7160e01b88526022600452602488fd5b90607f169062000116565b634e487b7160e01b87526041600452602487fd5b015190503880620000e8565b90848a9416918b8052868c20928c5b888282106200031f575050841162000305575b505050811b018755620000fc565b015160001960f88460031b161c19169055388080620002f7565b8385015186558d97909501949384019301620002e4565b909150898052848a208780850160051c8201928786106200037f575b918b91869594930160051c01915b82811062000370575050620000d2565b8c81558594508b910162000360565b9250819262000352565b634e487b7160e01b8a52602260045260248afd5b90607f1690620000bd565b634e487b7160e01b600052604160045260246000fd5b600080fd5b60408051919082016001600160401b03811183821017620003a85760405256fe6080604081815260048036101561001557600080fd5b600092833560e01c90816301ffc9a7146109bf5750806306fdde03146108f4578063081812fc146108b9578063095ea7b3146107dd57806311f88aed146107b457806323b872dd1461079c57806342842e0e14610773578063595d8b6b146105cb5780636352211e1461059a57806370a0823114610545578063715018a6146104e857806375794a3c146104c95780637a76dd27146104a25780638da5cb5b1461047957806395d89b4114610360578063a22cb465146102bf578063b88d4fde14610236578063c87b56dd146101e3578063e985e9c5146101915763f2fde38b146100ff57600080fd5b3461018d57602036600319011261018d57610118610a6b565b90610121610b41565b6001600160a01b03918216928315610177575050600654826bffffffffffffffffffffffff60a01b821617600655167f8be0079c531659141344cd1fd0a4f28419497f9722a3daafe3b4186f6b6457e08380a380f35b51631e4fbdf760e01b8152908101849052602490fd5b8280fd5b5050346101df57806003193601126101df5760ff816020936101b1610a6b565b6101b9610a86565b6001600160a01b0391821683526005875283832091168252855220549151911615158152f35b5080fd5b509190346101df5760203660031901126101df576102046102329335610e5b565b5081815161021181610ad1565b5280519161021e83610ad1565b825251918291602083526020830190610a2b565b0390f35b50903461018d57608036600319011261018d57610251610a6b565b610259610a86565b846064359467ffffffffffffffff86116101df57366023870112156101df578501359461029161028887610b25565b95519586610b03565b85855236602487830101116101df57856102bc96602460209301838801378501015260443591610d0c565b80f35b50903461018d578060031936011261018d576102d9610a6b565b906024359182151580930361035c576001600160a01b03169283156103475750338452600560205280842083855260205280842060ff1981541660ff8416179055519081527f17307eab39ab6107e8899845ad3d59bd9653f200f220920489ca2b5937696c3160203392a380f35b836024925191630b61174360e31b8352820152fd5b8480fd5b5091346104765780600319360112610476578151918160019283549384811c9181861695861561046c575b6020968785108114610459578899509688969785829a5291826000146104325750506001146103d7575b50505061023292916103c8910385610b03565b51928284938452830190610a2b565b91908693508083527fb10e2d527612073b26eecdfd717e6a320cf44b4afac2b0732d9fcbe2b7fa0cf65b82841061041a57505050820101816103c86102326103b5565b8054848a018601528895508794909301928101610401565b60ff19168782015293151560051b860190930193508492506103c8915061023290506103b5565b634e487b7160e01b835260228a52602483fd5b92607f169261038b565b80fd5b5050346101df57816003193601126101df5760065490516001600160a01b039091168152602090f35b503461018d57602036600319011261018d5760209282913581526008845220549051908152f35b5050346101df57816003193601126101df576020906007549051908152f35b8334610476578060031936011261047657610501610b41565b600680546001600160a01b0319811690915581906001600160a01b03167f8be0079c531659141344cd1fd0a4f28419497f9722a3daafe3b4186f6b6457e08280a380f35b509134610476576020366003190112610476576001600160a01b03610568610a6b565b169283156105855750806020938392526003845220549051908152f35b91516322718ad960e21b815291820152602490fd5b50913461047657602036600319011261047657506105ba60209235610e5b565b90516001600160a01b039091168152f35b50903461018d5760208060031936011261076f576105e7610a6b565b6105ef610b41565b600754906000199081831461075c57600183016007556001600160a01b039081169182156107455783885260028552838383888b2054168015159384610713575b50818b5260038852888b2080546001019055828b5260028852888b2080546001600160a01b031916831790557fddf252ad1be2c89b69c2b068fc378daa952ba7f163c4a11628f55a4df523b3ef8b80a46106fc57906024849260095416968887519889948593635a5eb7a360e11b85528401525af19384156106f25785946106c0575b5084526008905282205580f35b918091945082813d83116106eb575b6106d98183610b03565b8101031261035c5790519260086106b3565b503d6106cf565b83513d87823e3d90fd5b84516339e3563760e11b8152808701889052602490fd5b600084815260046020526040902080546001600160a01b0319169055818c5260038952898c2090815401905538610630565b8551633250574960e11b8152808801899052602490fd5b634e487b7160e01b875260118652602487fd5b8380fd5b5050346101df576102bc9061078736610a9c565b9192519261079484610ad1565b858452610d0c565b8334610476576102bc6107ae36610a9c565b91610b6d565b5050346101df57816003193601126101df5760095490516001600160a01b039091168152602090f35b50903461018d578060031936011261018d576107f7610a6b565b9160243561080481610e5b565b331515806108a6575b8061087d575b610867576001600160a01b039485169482918691167f8c5be1e5ebec7d5bd14f71427d1e84f3dd0314c0f7b2291e5b200ac8c7c3b9258880a48452602052822080546001600160a01b031916909117905580f35b835163a9fbf51f60e01b81523381850152602490fd5b506001600160a01b03811686526005602090815284872033885290528386205460ff1615610813565b506001600160a01b03811633141561080d565b503461018d57602036600319011261018d579182602093356108da81610e5b565b50825283528190205490516001600160a01b039091168152f35b50913461047657806003193601126104765781519181825492600184811c918186169586156109b5575b6020968785108114610459578899509688969785829a52918260001461043257505060011461095a5750505061023292916103c8910385610b03565b91908693508280527f290decd9548b62a8d60345a988386fc84ba6bc95484008f6362f93160ef3e5635b82841061099d57505050820101816103c86102326103b5565b8054848a018601528895508794909301928101610984565b92607f169261091e565b9250503461018d57602036600319011261018d573563ffffffff60e01b811680910361018d57602092506380ac58cd60e01b8114908115610a1a575b8115610a09575b5015158152f35b6301ffc9a760e01b14905038610a02565b635b5e139f60e01b811491506109fb565b919082519283825260005b848110610a57575050826000602080949584010152601f8019910116010190565b602081830181015184830182015201610a36565b600435906001600160a01b0382168203610a8157565b600080fd5b602435906001600160a01b0382168203610a8157565b6060906003190112610a81576001600160a01b03906004358281168103610a8157916024359081168103610a81579060443590565b6020810190811067ffffffffffffffff821117610aed57604052565b634e487b7160e01b600052604160045260246000fd5b90601f8019910116810190811067ffffffffffffffff821117610aed57604052565b67ffffffffffffffff8111610aed57601f01601f191660200190565b6006546001600160a01b03163303610b5557565b60405163118cdaa760e01b8152336004820152602490fd5b6001600160a01b039182169290918315610cf357600092828452826020956002875260409684888820541696879133151580610c5d575b509060027fddf252ad1be2c89b69c2b068fc378daa952ba7f163c4a11628f55a4df523b3ef9284610c2a575b858352600381528b8320805460010190558683525289812080546001600160a01b0319168517905580a41692838303610c095750505050565b6064945051926364283d7b60e01b8452600484015260248301526044820152fd5b600087815260046020526040902080546001600160a01b0319169055848352600381528b83208054600019019055610bd0565b91939450915080610cb2575b15610c7957859291879138610ba4565b878688610c96576024915190637e27328960e01b82526004820152fd5b604491519063177e802f60e01b82523360048301526024820152fd5b503387148015610cd7575b80610c695750858252600481523385898420541614610c69565b5086825260058152878220338352815260ff8883205416610cbd565b604051633250574960e11b815260006004820152602490fd5b610d17838383610b6d565b813b610d24575b50505050565b604051630a85bd0160e11b8082523360048301526001600160a01b03928316602483015260448201949094526080606482015260209592909116939092908390610d72906084830190610a2b565b039285816000958187895af1849181610e1b575b50610de6575050503d600014610dde573d610da081610b25565b90610dae6040519283610b03565b81528091843d92013e5b80519283610dd957604051633250574960e11b815260048101849052602490fd5b019050fd5b506060610db8565b919450915063ffffffff60e01b1603610e03575038808080610d1e565b60249060405190633250574960e11b82526004820152fd5b9091508681813d8311610e54575b610e338183610b03565b8101031261035c57516001600160e01b03198116810361035c579038610d86565b503d610e29565b6000818152600260205260409020546001600160a01b0316908115610e7e575090565b60249060405190637e27328960e01b82526004820152fdfea2646970667358221220e3598ed20e582736031bacd2fb1e68a885e7bb0c72ec31c95929b919158db42164736f6c63430008140033",
  "linkReferences": {},
  "deployedLinkReferences": {}
}