{
  "_format": "hh-sol-artifact-1",
  "contractName": "MoogicMarket",
  "sourceName": "contracts/MoogicMarkets.sol",
  "abi": [
    {
      "inputs": [
        {
          "internalType": "address",
          "name": "_fdc",
          "type": "address"
        },
        {
          "internalType": "address",
          "name": "_ftso",
          "type": "address"
        },
        {
          "internalType": "address",
          "name": "_rng",
          "type": "address"
        }
      ],
      "stateMutability": "nonpayable",
      "type": "constructor"
    },
    {
      "inputs": [
        {
          "internalType": "address",
          "name": "owner",
          "type": "address"
        }
      ],
      "name": "OwnableInvalidOwner",
      "type": "error"
    },
    {
      "inputs": [
        {
          "internalType": "address",
          "name": "account",
          "type": "address"
        }
      ],
      "name": "OwnableUnauthorizedAccount",
      "type": "error"
    },
    {
      "anonymous": false,
      "inputs": [
        {
          "indexed": true,
          "internalType": "uint256",
          "name": "marketId",
          "type": "uint256"
        },
        {
          "indexed": true,
          "internalType": "address",
          "name": "bettor",
          "type": "address"
        },
        {
          "indexed": false,
          "internalType": "bool",
          "name": "prediction",
          "type": "bool"
        },
        {
          "indexed": false,
          "internalType": "uint256",
          "name": "amount",
          "type": "uint256"
        }
      ],
      "name": "BetPlaced",
      "type": "event"
    },
    {
      "anonymous": false,
      "inputs": [
        {
          "indexed": true,
          "internalType": "uint256",
          "name": "marketId",
          "type": "uint256"
        },
        {
          "indexed": true,
          "internalType": "address",
          "name": "winner",
          "type": "address"
        }
      ],
      "name": "BonusWinnerSelected",
      "type": "event"
    },
    {
      "anonymous": false,
      "inputs": [
        {
          "indexed": true,
          "internalType": "uint256",
          "name": "id",
          "type": "uint256"
        },
        {
          "indexed": false,
          "internalType": "string",
          "name": "question",
          "type": "string"
        }
      ],
      "name": "MarketCreated",
      "type": "event"
    },
    {
      "anonymous": false,
      "inputs": [
        {
          "indexed": true,
          "internalType": "uint256",
          "name": "id",
          "type": "uint256"
        },
        {
          "indexed": false,
          "internalType": "bool",
          "name": "outcome",
          "type": "bool"
        }
      ],
      "name": "MarketResolved",
      "type": "event"
    },
    {
      "anonymous": false,
      "inputs": [
        {
          "indexed": true,
          "internalType": "address",
          "name": "previousOwner",
          "type": "address"
        },
        {
          "indexed": true,
          "internalType": "address",
          "name": "newOwner",
          "type": "address"
        }
      ],
      "name": "OwnershipTransferred",
      "type": "event"
    },
    {
      "anonymous": false,
      "inputs": [
        {
          "indexed": true,
          "internalType": "uint256",
          "name": "marketId",
          "type": "uint256"
        },
        {
          "indexed": true,
          "internalType": "address",
          "name": "bettor",
          "type": "address"
        },
        {
          "indexed": false,
          "internalType": "uint256",
          "name": "amount",
          "type": "uint256"
        }
      ],
      "name": "RewardClaimed",
      "type": "event"
    },
    {
      "inputs": [
        {
          "internalType": "uint256",
          "name": "",
          "type": "uint256"
        },
        {
          "internalType": "address",
          "name": "",
          "type": "address"
        }
      ],
      "name": "bets",
      "outputs": [
        {
          "internalType": "bool",
          "name": "prediction",
          "type": "bool"
        },
        {
          "internalType": "uint256",
          "name": "amount",
          "type": "uint256"
        },
        {
          "internalType": "bool",
          "name": "claimed",
          "type": "bool"
        }
      ],
      "stateMutability": "view",
      "type": "function"
    },
    {
      "inputs": [
        {
          "internalType": "uint256",
          "name": "",
          "type": "uint256"
        }
      ],
      "name": "bonusWinner",
      "outputs": [
        {
          "internalType": "address",
          "name": "",
          "type": "address"
        }
      ],
      "stateMutability": "view",
      "type": "function"
    },
    {
      "inputs": [
        {
          "internalType": "uint256",
          "name": "_id",
          "type": "uint256"
        }
      ],
      "name": "claimReward",
      "outputs": [],
      "stateMutability": "nonpayable",
      "type": "function"
    },
    {
      "inputs": [
        {
          "internalType": "uint256",
          "name": "",
          "type": "uint256"
        },
        {
          "internalType": "uint256",
          "name": "",
          "type": "uint256"
        }
      ],
      "name": "correctPredictors",
      "outputs": [
        {
          "internalType": "address",
          "name": "",
          "type": "address"
        }
      ],
      "stateMutability": "view",
      "type": "function"
    },
    {
      "inputs": [
        {
          "internalType": "string",
          "name": "_question",
          "type": "string"
        },
        {
          "internalType": "uint256",
          "name": "_deadline",
          "type": "uint256"
        }
      ],
      "name": "createMarket",
      "outputs": [],
      "stateMutability": "nonpayable",
      "type": "function"
    },
    {
      "inputs": [],
      "name": "fdc",
      "outputs": [
        {
          "internalType": "contract IFlareDataConnector",
          "name": "",
          "type": "address"
        }
      ],
      "stateMutability": "view",
      "type": "function"
    },
    {
      "inputs": [],
      "name": "ftso",
      "outputs": [
        {
          "internalType": "contract IPriceReader",
          "name": "",
          "type": "address"
        }
      ],
      "stateMutability": "view",
      "type": "function"
    },
    {
      "inputs": [],
      "name": "marketId",
      "outputs": [
        {
          "internalType": "uint256",
          "name": "",
          "type": "uint256"
        }
      ],
      "stateMutability": "view",
      "type": "function"
    },
    {
      "inputs": [
        {
          "internalType": "uint256",
          "name": "",
          "type": "uint256"
        }
      ],
      "name": "markets",
      "outputs": [
        {
          "internalType": "uint256",
          "name": "id",
          "type": "uint256"
        },
        {
          "internalType": "string",
          "name": "question",
          "type": "string"
        },
        {
          "internalType": "uint256",
          "name": "deadline",
          "type": "uint256"
        },
        {
          "internalType": "enum MoogicMarket.MarketStatus",
          "name": "status",
          "type": "uint8"
        },
        {
          "internalType": "bool",
          "name": "outcome",
          "type": "bool"
        },
        {
          "internalType": "uint256",
          "name": "totalYes",
          "type": "uint256"
        },
        {
          "internalType": "uint256",
          "name": "totalNo",
          "type": "uint256"
        },
        {
          "internalType": "uint256",
          "name": "resolutionTimestamp",
          "type": "uint256"
        },
        {
          "internalType": "bool",
          "name": "resolved",
          "type": "bool"
        }
      ],
      "stateMutability": "view",
      "type": "function"
    },
    {
      "inputs": [],
      "name": "owner",
      "outputs": [
        {
          "internalType": "address",
          "name": "",
          "type": "address"
        }
      ],
      "stateMutability": "view",
      "type": "function"
    },
    {
      "inputs": [
        {
          "internalType": "uint256",
          "name": "_id",
          "type": "uint256"
        },
        {
          "internalType": "bool",
          "name": "_prediction",
          "type": "bool"
        }
      ],
      "name": "placeBet",
      "outputs": [],
      "stateMutability": "payable",
      "type": "function"
    },
    {
      "inputs": [
        {
          "internalType": "uint256",
          "name": "requestId",
          "type": "uint256"
        },
        {
          "internalType": "uint256",
          "name": "random",
          "type": "uint256"
        }
      ],
      "name": "receiveRandom",
      "outputs": [],
      "stateMutability": "nonpayable",
      "type": "function"
    },
    {
      "inputs": [],
      "name": "renounceOwnership",
      "outputs": [],
      "stateMutability": "nonpayable",
      "type": "function"
    },
    {
      "inputs": [
        {
          "internalType": "uint256",
          "name": "marketId",
          "type": "uint256"
        }
      ],
      "name": "requestRNG",
      "outputs": [],
      "stateMutability": "nonpayable",
      "type": "function"
    },
    {
      "inputs": [
        {
          "internalType": "uint256",
          "name": "_id",
          "type": "uint256"
        },
        {
          "internalType": "bytes32",
          "name": "queryId",
          "type": "bytes32"
        }
      ],
      "name": "resolveFromFDC",
      "outputs": [],
      "stateMutability": "nonpayable",
      "type": "function"
    },
    {
      "inputs": [
        {
          "internalType": "uint256",
          "name": "_id",
          "type": "uint256"
        },
        {
          "internalType": "bool",
          "name": "_externalOutcome",
          "type": "bool"
        }
      ],
      "name": "resolveMarket",
      "outputs": [],
      "stateMutability": "nonpayable",
      "type": "function"
    },
    {
      "inputs": [],
      "name": "rngContract",
      "outputs": [
        {
          "internalType": "address",
          "name": "",
          "type": "address"
        }
      ],
      "stateMutability": "view",
      "type": "function"
    },
    {
      "inputs": [
        {
          "internalType": "address",
          "name": "newOwner",
          "type": "address"
        }
      ],
      "name": "transferOwnership",
      "outputs": [],
      "stateMutability": "nonpayable",
      "type": "function"
    }
  ],
  "bytecode": "0x60806040523480156200001157600080fd5b5060405162002e7d38038062002e7d8339818101604052810190620000379190620002b9565b33600073ffffffffffffffffffffffffffffffffffffffff168173ffffffffffffffffffffffffffffffffffffffff1603620000ad5760006040517f1e4fbdf7000000000000000000000000000000000000000000000000000000008152600401620000a4919062000326565b60405180910390fd5b620000be816200018b60201b60201c565b5082600460006101000a81548173ffffffffffffffffffffffffffffffffffffffff021916908373ffffffffffffffffffffffffffffffffffffffff16021790555081600560006101000a81548173ffffffffffffffffffffffffffffffffffffffff021916908373ffffffffffffffffffffffffffffffffffffffff16021790555080600660006101000a81548173ffffffffffffffffffffffffffffffffffffffff021916908373ffffffffffffffffffffffffffffffffffffffff16021790555050505062000343565b60008060009054906101000a900473ffffffffffffffffffffffffffffffffffffffff169050816000806101000a81548173ffffffffffffffffffffffffffffffffffffffff021916908373ffffffffffffffffffffffffffffffffffffffff1602179055508173ffffffffffffffffffffffffffffffffffffffff168173ffffffffffffffffffffffffffffffffffffffff167f8be0079c531659141344cd1fd0a4f28419497f9722a3daafe3b4186f6b6457e060405160405180910390a35050565b600080fd5b600073ffffffffffffffffffffffffffffffffffffffff82169050919050565b6000620002818262000254565b9050919050565b620002938162000274565b81146200029f57600080fd5b50565b600081519050620002b38162000288565b92915050565b600080600060608486031215620002d557620002d46200024f565b5b6000620002e586828701620002a2565b9350506020620002f886828701620002a2565b92505060406200030b86828701620002a2565b9150509250925092565b620003208162000274565b82525050565b60006020820190506200033d600083018462000315565b92915050565b612b2a80620003536000396000f3fe6080604052600436106101095760003560e01c80639ed9c74d11610095578063bd7f268811610064578063bd7f26881461033c578063f0d86d5514610365578063f2fde38b14610390578063f533f4e4146103b9578063f644b3bb146103f657610109565b80639ed9c74d14610289578063ae169a50146102a5578063b1283e77146102ce578063b98c530d1461031357610109565b806357bde446116100dc57806357bde446146101ca5780636ed71ede146101f3578063715018a61461021e578063883c84c1146102355780638da5cb5b1461025e57610109565b80630da0c0221461010e5780632fe9f3cc146101395780633275f21c1461017657806348cc70ac146101a1575b600080fd5b34801561011a57600080fd5b50610123610435565b6040516101309190611804565b60405180910390f35b34801561014557600080fd5b50610160600480360381019061015b9190611869565b61045b565b60405161016d91906118ca565b60405180910390f35b34801561018257600080fd5b5061018b6104a9565b6040516101989190611906565b60405180910390f35b3480156101ad57600080fd5b506101c860048036038101906101c39190611957565b6104cf565b005b3480156101d657600080fd5b506101f160048036038101906101ec91906119cf565b610736565b005b3480156101ff57600080fd5b5061020861089a565b6040516102159190611a1e565b60405180910390f35b34801561022a57600080fd5b506102336108a0565b005b34801561024157600080fd5b5061025c60048036038101906102579190611b7f565b6108b4565b005b34801561026a57600080fd5b50610273610a83565b60405161028091906118ca565b60405180910390f35b6102a3600480360381019061029e91906119cf565b610aac565b005b3480156102b157600080fd5b506102cc60048036038101906102c79190611bdb565b610ca5565b005b3480156102da57600080fd5b506102f560048036038101906102f09190611bdb565b611013565b60405161030a99989796959493929190611d0d565b60405180910390f35b34801561031f57600080fd5b5061033a60048036038101906103359190611bdb565b611110565b005b34801561034857600080fd5b50610363600480360381019061035e9190611869565b6112db565b005b34801561037157600080fd5b5061037a611502565b60405161038791906118ca565b60405180910390f35b34801561039c57600080fd5b506103b760048036038101906103b29190611dcd565b611528565b005b3480156103c557600080fd5b506103e060048036038101906103db9190611bdb565b6115ae565b6040516103ed91906118ca565b60405180910390f35b34801561040257600080fd5b5061041d60048036038101906104189190611dfa565b6115e1565b60405161042c93929190611e3a565b60405180910390f35b600560009054906101000a900473ffffffffffffffffffffffffffffffffffffffff1681565b6007602052816000526040600020818154811061047757600080fd5b906000526020600020016000915091509054906101000a900473ffffffffffffffffffffffffffffffffffffffff1681565b600460009054906101000a900473ffffffffffffffffffffffffffffffffffffffff1681565b6104d7611632565b60006002600084815260200190815260200160002090508060070160009054906101000a900460ff1615610540576040517f08c379a000000000000000000000000000000000000000000000000000000000815260040161053790611ebd565b60405180910390fd5b8060020154421015610587576040517f08c379a000000000000000000000000000000000000000000000000000000000815260040161057e90611f29565b60405180910390fd5b6000600460009054906101000a900473ffffffffffffffffffffffffffffffffffffffff1673ffffffffffffffffffffffffffffffffffffffff166354f6127f846040518263ffffffff1660e01b81526004016105e49190611f58565b600060405180830381865afa158015610601573d6000803e3d6000fd5b505050506040513d6000823e3d601f19601f8201168201806040525081019061062a9190612014565b90506000815111610670576040517f08c379a0000000000000000000000000000000000000000000000000000000008152600401610667906120a9565b60405180910390fd5b60008180602001905181019061068691906120de565b9050808360030160016101000a81548160ff02191690831515021790555060028360030160006101000a81548160ff021916908360028111156106cc576106cb611c87565b5b021790555042836006018190555060018360070160006101000a81548160ff021916908315150217905550847f4927fe38919783250023d27e65a3e56b6b5c3e49364e51674a41ef08d62460d982604051610727919061210b565b60405180910390a25050505050565b61073e611632565b6000600260008481526020019081526020016000209050806002015442101561079c576040517f08c379a000000000000000000000000000000000000000000000000000000000815260040161079390611f29565b60405180910390fd5b8060070160009054906101000a900460ff16156107ee576040517f08c379a00000000000000000000000000000000000000000000000000000000081526004016107e590611ebd565b60405180910390fd5b818160030160016101000a81548160ff02191690831515021790555060028160030160006101000a81548160ff0219169083600281111561083257610831611c87565b5b021790555042816006018190555060018160070160006101000a81548160ff021916908315150217905550827f4927fe38919783250023d27e65a3e56b6b5c3e49364e51674a41ef08d62460d98360405161088d919061210b565b60405180910390a2505050565b60015481565b6108a8611632565b6108b260006116b9565b565b6108bc611632565b4281116108fe576040517f08c379a00000000000000000000000000000000000000000000000000000000081526004016108f590612172565b60405180910390fd5b60405180610120016040528060015481526020018381526020018281526020016000600281111561093257610931611c87565b5b8152602001600015158152602001600081526020016000815260200160008152602001600015158152506002600060015481526020019081526020016000206000820151816000015560208201518160010190816109909190612394565b506040820151816002015560608201518160030160006101000a81548160ff021916908360028111156109c6576109c5611c87565b5b021790555060808201518160030160016101000a81548160ff02191690831515021790555060a0820151816004015560c0820151816005015560e082015181600601556101008201518160070160006101000a81548160ff0219169083151502179055509050506001547f218577c5bc2b73a2bfcbd5e49be9f73d7baadac57a71efdffe54f3b4489cc0ab83604051610a5f9190612466565b60405180910390a260016000815480929190610a7a906124b7565b91905055505050565b60008060009054906101000a900473ffffffffffffffffffffffffffffffffffffffff16905090565b600060026000848152602001908152602001600020905080600201544210610b09576040517f08c379a0000000000000000000000000000000000000000000000000000000008152600401610b009061254b565b60405180910390fd5b60003411610b4c576040517f08c379a0000000000000000000000000000000000000000000000000000000008152600401610b43906125b7565b60405180910390fd5b60006003600085815260200190815260200160002060003373ffffffffffffffffffffffffffffffffffffffff1673ffffffffffffffffffffffffffffffffffffffff16815260200190815260200160002090506000816001015414610be7576040517f08c379a0000000000000000000000000000000000000000000000000000000008152600401610bde90612623565b60405180910390fd5b828160000160006101000a81548160ff0219169083151502179055503481600101819055508215610c325734826004016000828254610c269190612643565b92505081905550610c4e565b34826005016000828254610c469190612643565b925050819055505b3373ffffffffffffffffffffffffffffffffffffffff16847f4af71b021e799c62c158bd54636ca8da2fa26115a21a2dc6efe486ec104fd15f8534604051610c97929190612677565b60405180910390a350505050565b60006002600083815260200190815260200160002090508060070160009054906101000a900460ff16610d0d576040517f08c379a0000000000000000000000000000000000000000000000000000000008152600401610d04906126ec565b60405180910390fd5b60006003600084815260200190815260200160002060003373ffffffffffffffffffffffffffffffffffffffff1673ffffffffffffffffffffffffffffffffffffffff16815260200190815260200160002090508060020160009054906101000a900460ff1615610db3576040517f08c379a0000000000000000000000000000000000000000000000000000000008152600401610daa90612758565b60405180910390fd5b6000816001015411610dfa576040517f08c379a0000000000000000000000000000000000000000000000000000000008152600401610df1906127c4565b60405180910390fd5b8160030160019054906101000a900460ff1615158160000160009054906101000a900460ff16151514610e62576040517f08c379a0000000000000000000000000000000000000000000000000000000008152600401610e5990612830565b60405180910390fd5b60008160000160009054906101000a900460ff16610eb157826005015483600501548460040154610e939190612643565b8360010154610ea29190612850565b610eac91906128c1565b610ee4565b826004015483600501548460040154610eca9190612643565b8360010154610ed99190612850565b610ee391906128c1565b5b905060018260020160006101000a81548160ff02191690831515021790555060076000858152602001908152602001600020339080600181540180825580915050600190039060005260206000200160009091909190916101000a81548173ffffffffffffffffffffffffffffffffffffffff021916908373ffffffffffffffffffffffffffffffffffffffff1602179055503373ffffffffffffffffffffffffffffffffffffffff166108fc829081150290604051600060405180830381858888f19350505050158015610fbd573d6000803e3d6000fd5b503373ffffffffffffffffffffffffffffffffffffffff16847f24b5efa61dd1cfc659205a97fb8ed868f3cb8c81922bab2b96423e5de1de2cb7836040516110059190611a1e565b60405180910390a350505050565b600260205280600052604060002060009150905080600001549080600101805461103c906121c1565b80601f0160208091040260200160405190810160405280929190818152602001828054611068906121c1565b80156110b55780601f1061108a576101008083540402835291602001916110b5565b820191906000526020600020905b81548152906001019060200180831161109857829003601f168201915b5050505050908060020154908060030160009054906101000a900460ff16908060030160019054906101000a900460ff16908060040154908060050154908060060154908060070160009054906101000a900460ff16905089565b611118611632565b6002600082815260200190815260200160002060070160009054906101000a900460ff1661117b576040517f08c379a00000000000000000000000000000000000000000000000000000000081526004016111729061293e565b60405180910390fd5b6000600660009054906101000a900473ffffffffffffffffffffffffffffffffffffffff1673ffffffffffffffffffffffffffffffffffffffff16826040516024016111c79190611a1e565b6040516020818303038152906040527f0ea04562000000000000000000000000000000000000000000000000000000007bffffffffffffffffffffffffffffffffffffffffffffffffffffffff19166020820180517bffffffffffffffffffffffffffffffffffffffffffffffffffffffff838183161783525050505060405161125191906129a5565b6000604051808303816000865af19150503d806000811461128e576040519150601f19603f3d011682016040523d82523d6000602084013e611293565b606091505b50509050806112d7576040517f08c379a00000000000000000000000000000000000000000000000000000000081526004016112ce90612a08565b60405180910390fd5b5050565b600660009054906101000a900473ffffffffffffffffffffffffffffffffffffffff1673ffffffffffffffffffffffffffffffffffffffff163373ffffffffffffffffffffffffffffffffffffffff161461136b576040517f08c379a000000000000000000000000000000000000000000000000000000000815260040161136290612a74565b60405180910390fd5b60006007600084815260200190815260200160002080548060200260200160405190810160405280929190818152602001828054801561140057602002820191906000526020600020905b8160009054906101000a900473ffffffffffffffffffffffffffffffffffffffff1673ffffffffffffffffffffffffffffffffffffffff16815260200190600101908083116113b6575b50505050509050600081510361141657506114fe565b60008151836114259190612a94565b905081818151811061143a57611439612ac5565b5b60200260200101516008600086815260200190815260200160002060006101000a81548173ffffffffffffffffffffffffffffffffffffffff021916908373ffffffffffffffffffffffffffffffffffffffff1602179055508181815181106114a6576114a5612ac5565b5b602002602001015173ffffffffffffffffffffffffffffffffffffffff166108fc662386f26fc100009081150290604051600060405180830381858888f193505050501580156114fa573d6000803e3d6000fd5b5050505b5050565b600660009054906101000a900473ffffffffffffffffffffffffffffffffffffffff1681565b611530611632565b600073ffffffffffffffffffffffffffffffffffffffff168173ffffffffffffffffffffffffffffffffffffffff16036115a25760006040517f1e4fbdf700000000000000000000000000000000000000000000000000000000815260040161159991906118ca565b60405180910390fd5b6115ab816116b9565b50565b60086020528060005260406000206000915054906101000a900473ffffffffffffffffffffffffffffffffffffffff1681565b6003602052816000526040600020602052806000526040600020600091509150508060000160009054906101000a900460ff16908060010154908060020160009054906101000a900460ff16905083565b61163a61177d565b73ffffffffffffffffffffffffffffffffffffffff16611658610a83565b73ffffffffffffffffffffffffffffffffffffffff16146116b75761167b61177d565b6040517f118cdaa70000000000000000000000000000000000000000000000000000000081526004016116ae91906118ca565b60405180910390fd5b565b60008060009054906101000a900473ffffffffffffffffffffffffffffffffffffffff169050816000806101000a81548173ffffffffffffffffffffffffffffffffffffffff021916908373ffffffffffffffffffffffffffffffffffffffff1602179055508173ffffffffffffffffffffffffffffffffffffffff168173ffffffffffffffffffffffffffffffffffffffff167f8be0079c531659141344cd1fd0a4f28419497f9722a3daafe3b4186f6b6457e060405160405180910390a35050565b600033905090565b600073ffffffffffffffffffffffffffffffffffffffff82169050919050565b6000819050919050565b60006117ca6117c56117c084611785565b6117a5565b611785565b9050919050565b60006117dc826117af565b9050919050565b60006117ee826117d1565b9050919050565b6117fe816117e3565b82525050565b600060208201905061181960008301846117f5565b92915050565b6000604051905090565b600080fd5b600080fd5b6000819050919050565b61184681611833565b811461185157600080fd5b50565b6000813590506118638161183d565b92915050565b600080604083850312156118805761187f611829565b5b600061188e85828601611854565b925050602061189f85828601611854565b9150509250929050565b60006118b482611785565b9050919050565b6118c4816118a9565b82525050565b60006020820190506118df60008301846118bb565b92915050565b60006118f0826117d1565b9050919050565b611900816118e5565b82525050565b600060208201905061191b60008301846118f7565b92915050565b6000819050919050565b61193481611921565b811461193f57600080fd5b50565b6000813590506119518161192b565b92915050565b6000806040838503121561196e5761196d611829565b5b600061197c85828601611854565b925050602061198d85828601611942565b9150509250929050565b60008115159050919050565b6119ac81611997565b81146119b757600080fd5b50565b6000813590506119c9816119a3565b92915050565b600080604083850312156119e6576119e5611829565b5b60006119f485828601611854565b9250506020611a05858286016119ba565b9150509250929050565b611a1881611833565b82525050565b6000602082019050611a336000830184611a0f565b92915050565b600080fd5b600080fd5b6000601f19601f8301169050919050565b7f4e487b7100000000000000000000000000000000000000000000000000000000600052604160045260246000fd5b611a8c82611a43565b810181811067ffffffffffffffff82111715611aab57611aaa611a54565b5b80604052505050565b6000611abe61181f565b9050611aca8282611a83565b919050565b600067ffffffffffffffff821115611aea57611ae9611a54565b5b611af382611a43565b9050602081019050919050565b82818337600083830152505050565b6000611b22611b1d84611acf565b611ab4565b905082815260208101848484011115611b3e57611b3d611a3e565b5b611b49848285611b00565b509392505050565b600082601f830112611b6657611b65611a39565b5b8135611b76848260208601611b0f565b91505092915050565b60008060408385031215611b9657611b95611829565b5b600083013567ffffffffffffffff811115611bb457611bb361182e565b5b611bc085828601611b51565b9250506020611bd185828601611854565b9150509250929050565b600060208284031215611bf157611bf0611829565b5b6000611bff84828501611854565b91505092915050565b600081519050919050565b600082825260208201905092915050565b60005b83811015611c42578082015181840152602081019050611c27565b60008484015250505050565b6000611c5982611c08565b611c638185611c13565b9350611c73818560208601611c24565b611c7c81611a43565b840191505092915050565b7f4e487b7100000000000000000000000000000000000000000000000000000000600052602160045260246000fd5b60038110611cc757611cc6611c87565b5b50565b6000819050611cd882611cb6565b919050565b6000611ce882611cca565b9050919050565b611cf881611cdd565b82525050565b611d0781611997565b82525050565b600061012082019050611d23600083018c611a0f565b8181036020830152611d35818b611c4e565b9050611d44604083018a611a0f565b611d516060830189611cef565b611d5e6080830188611cfe565b611d6b60a0830187611a0f565b611d7860c0830186611a0f565b611d8560e0830185611a0f565b611d93610100830184611cfe565b9a9950505050505050505050565b611daa816118a9565b8114611db557600080fd5b50565b600081359050611dc781611da1565b92915050565b600060208284031215611de357611de2611829565b5b6000611df184828501611db8565b91505092915050565b60008060408385031215611e1157611e10611829565b5b6000611e1f85828601611854565b9250506020611e3085828601611db8565b9150509250929050565b6000606082019050611e4f6000830186611cfe565b611e5c6020830185611a0f565b611e696040830184611cfe565b949350505050565b7f416c7265616479207265736f6c76656400000000000000000000000000000000600082015250565b6000611ea7601083611c13565b9150611eb282611e71565b602082019050919050565b60006020820190508181036000830152611ed681611e9a565b9050919050565b7f546f6f206561726c790000000000000000000000000000000000000000000000600082015250565b6000611f13600983611c13565b9150611f1e82611edd565b602082019050919050565b60006020820190508181036000830152611f4281611f06565b9050919050565b611f5281611921565b82525050565b6000602082019050611f6d6000830184611f49565b92915050565b600067ffffffffffffffff821115611f8e57611f8d611a54565b5b611f9782611a43565b9050602081019050919050565b6000611fb7611fb284611f73565b611ab4565b905082815260208101848484011115611fd357611fd2611a3e565b5b611fde848285611c24565b509392505050565b600082601f830112611ffb57611ffa611a39565b5b815161200b848260208601611fa4565b91505092915050565b60006020828403121561202a57612029611829565b5b600082015167ffffffffffffffff8111156120485761204761182e565b5b61205484828501611fe6565b91505092915050565b7f4e6f20646174612066726f6d2046444300000000000000000000000000000000600082015250565b6000612093601083611c13565b915061209e8261205d565b602082019050919050565b600060208201905081810360008301526120c281612086565b9050919050565b6000815190506120d8816119a3565b92915050565b6000602082840312156120f4576120f3611829565b5b6000612102848285016120c9565b91505092915050565b60006020820190506121206000830184611cfe565b92915050565b7f446561646c696e65206d75737420626520696e20746865206675747572650000600082015250565b600061215c601e83611c13565b915061216782612126565b602082019050919050565b6000602082019050818103600083015261218b8161214f565b9050919050565b7f4e487b7100000000000000000000000000000000000000000000000000000000600052602260045260246000fd5b600060028204905060018216806121d957607f821691505b6020821081036121ec576121eb612192565b5b50919050565b60008190508160005260206000209050919050565b60006020601f8301049050919050565b600082821b905092915050565b6000600883026122547fffffffffffffffffffffffffffffffffffffffffffffffffffffffffffffffff82612217565b61225e8683612217565b95508019841693508086168417925050509392505050565b600061229161228c61228784611833565b6117a5565b611833565b9050919050565b6000819050919050565b6122ab83612276565b6122bf6122b782612298565b848454612224565b825550505050565b600090565b6122d46122c7565b6122df8184846122a2565b505050565b5b81811015612303576122f86000826122cc565b6001810190506122e5565b5050565b601f82111561234857612319816121f2565b61232284612207565b81016020851015612331578190505b61234561233d85612207565b8301826122e4565b50505b505050565b600082821c905092915050565b600061236b6000198460080261234d565b1980831691505092915050565b6000612384838361235a565b9150826002028217905092915050565b61239d82611c08565b67ffffffffffffffff8111156123b6576123b5611a54565b5b6123c082546121c1565b6123cb828285612307565b600060209050601f8311600181146123fe57600084156123ec578287015190505b6123f68582612378565b86555061245e565b601f19841661240c866121f2565b60005b828110156124345784890151825560018201915060208501945060208101905061240f565b86831015612451578489015161244d601f89168261235a565b8355505b6001600288020188555050505b505050505050565b600060208201905081810360008301526124808184611c4e565b905092915050565b7f4e487b7100000000000000000000000000000000000000000000000000000000600052601160045260246000fd5b60006124c282611833565b91507fffffffffffffffffffffffffffffffffffffffffffffffffffffffffffffffff82036124f4576124f3612488565b5b600182019050919050565b7f4d61726b657420636c6f73656400000000000000000000000000000000000000600082015250565b6000612535600d83611c13565b9150612540826124ff565b602082019050919050565b6000602082019050818103600083015261256481612528565b9050919050565b7f4d757374207374616b6520746f20626574000000000000000000000000000000600082015250565b60006125a1601183611c13565b91506125ac8261256b565b602082019050919050565b600060208201905081810360008301526125d081612594565b9050919050565b7f416c726561647920626574000000000000000000000000000000000000000000600082015250565b600061260d600b83611c13565b9150612618826125d7565b602082019050919050565b6000602082019050818103600083015261263c81612600565b9050919050565b600061264e82611833565b915061265983611833565b925082820190508082111561267157612670612488565b5b92915050565b600060408201905061268c6000830185611cfe565b6126996020830184611a0f565b9392505050565b7f4e6f74207265736f6c7665640000000000000000000000000000000000000000600082015250565b60006126d6600c83611c13565b91506126e1826126a0565b602082019050919050565b60006020820190508181036000830152612705816126c9565b9050919050565b7f416c726561647920636c61696d65640000000000000000000000000000000000600082015250565b6000612742600f83611c13565b915061274d8261270c565b602082019050919050565b6000602082019050818103600083015261277181612735565b9050919050565b7f4e6f206265740000000000000000000000000000000000000000000000000000600082015250565b60006127ae600683611c13565b91506127b982612778565b602082019050919050565b600060208201905081810360008301526127dd816127a1565b9050919050565b7f496e636f72726563740000000000000000000000000000000000000000000000600082015250565b600061281a600983611c13565b9150612825826127e4565b602082019050919050565b600060208201905081810360008301526128498161280d565b9050919050565b600061285b82611833565b915061286683611833565b925082820261287481611833565b9150828204841483151761288b5761288a612488565b5b5092915050565b7f4e487b7100000000000000000000000000000000000000000000000000000000600052601260045260246000fd5b60006128cc82611833565b91506128d783611833565b9250826128e7576128e6612892565b5b828204905092915050565b7f4d61726b6574206e6f74207265736f6c76656420796574000000000000000000600082015250565b6000612928601783611c13565b9150612933826128f2565b602082019050919050565b600060208201905081810360008301526129578161291b565b9050919050565b600081519050919050565b600081905092915050565b600061297f8261295e565b6129898185612969565b9350612999818560208601611c24565b80840191505092915050565b60006129b18284612974565b915081905092915050565b7f524e472072657175657374206661696c65640000000000000000000000000000600082015250565b60006129f2601283611c13565b91506129fd826129bc565b602082019050919050565b60006020820190508181036000830152612a21816129e5565b9050919050565b7f556e617574686f72697a65640000000000000000000000000000000000000000600082015250565b6000612a5e600c83611c13565b9150612a6982612a28565b602082019050919050565b60006020820190508181036000830152612a8d81612a51565b9050919050565b6000612a9f82611833565b9150612aaa83611833565b925082612aba57612ab9612892565b5b828206905092915050565b7f4e487b7100000000000000000000000000000000000000000000000000000000600052603260045260246000fdfea2646970667358221220710a4733df5fb08de9bdd071c33d935ae214a8ad7b14809b149a1b3612c378fd64736f6c63430008140033",
  "linkReferences": {},
  "deployedLinkReferences": {}
}